{
  "contractName": "bitANDORNOT",
  "abi": [
    {
      "constant": true,
      "inputs": [
        {
          "internalType": "uint8",
          "name": "a",
          "type": "uint8"
        },
        {
          "internalType": "uint8",
          "name": "b",
          "type": "uint8"
        },
        {
          "internalType": "bytes32",
          "name": "operation",
          "type": "bytes32"
        }
      ],
      "name": "AndOrNot",
      "outputs": [
        {
          "internalType": "uint8",
          "name": "",
          "type": "uint8"
        }
      ],
      "payable": false,
      "stateMutability": "pure",
      "type": "function"
    }
  ],
  "bytecode": "0x608060405234801561001057600080fd5b5061012c806100206000396000f3fe6080604052348015600f57600080fd5b506004361060285760003560e01c806335857a6514602d575b600080fd5b605a60048036036060811015604157600080fd5b5060ff8135811691602081013590911690604001356070565b6040805160ff9092168252519081900360200190f35b6000816210539160ea1b14156087575082821660f0565b816127a960f11b1415609b575082821760f0565b81621393d560ea1b141560af5750821960f0565b6040805162461bcd60e51b815260206004820152601160248201527024b73b30b634b21037b832b930ba34b7b760791b604482015290519081900360640190fd5b939250505056fea265627a7a72315820a99716386ab88ed1568fda40c8eb79e7dbb86b0ba2573decc3e30879aeb19be464736f6c63430005100032",
  "source": "// SPDX-License-Identifier: MIT\npragma solidity >=0.4.22 <0.9.0;\n\ncontract bitANDORNOT {\n  function AndOrNot(uint8 a, uint8 b, bytes32 operation) public pure returns (uint8) {\n        if (operation == \"AND\") {\n            return a & b; // Побитовое AND\n        } else if (operation == \"OR\") {\n            return a | b; // Побитовое OR\n        } else if (operation == \"NOT\") {\n            return uint8(~a); // Побитовое NOT\n        }\n        revert(\"Invalid operation\");\n    }\n}\n",
  "sourcePath": "C:\\contract\\PracticPapulov\\contracts\\bitANDORNOT.sol",
  "compiler": {
    "name": "solc",
    "version": "0.5.16+commit.9c3226ce.Emscripten.clang"
  },
  "schemaVersion": "3.4.16",
  "updatedAt": "2024-04-18T10:01:36.216Z",
  "networkType": "ethereum",
  "devdoc": {
    "methods": {}
  },
  "userdoc": {
    "methods": {}
  }
}