{
  "contractName": "Calculator",
  "abi": [
    {
      "constant": true,
      "inputs": [
        {
          "internalType": "uint256",
          "name": "x",
          "type": "uint256"
        },
        {
          "internalType": "bytes32",
          "name": "oper",
          "type": "bytes32"
        },
        {
          "internalType": "uint256",
          "name": "y",
          "type": "uint256"
        }
      ],
      "name": "getCalk",
      "outputs": [
        {
          "internalType": "uint256",
          "name": "",
          "type": "uint256"
        }
      ],
      "payable": false,
      "stateMutability": "pure",
      "type": "function"
    }
  ],
  "bytecode": "0x608060405234801561001057600080fd5b5060ec8061001f6000396000f3fe6080604052348015600f57600080fd5b506004361060285760003560e01c8063321fe0f814602d575b600080fd5b605360048036036060811015604157600080fd5b50803590602081013590604001356065565b60408051918252519081900360200190f35b60008083602b60f81b1415607857508382015b83602d60f81b1415608857508184035b83601560f91b1415609857508382025b83602f60f81b141560af5782858160ab57fe5b0490505b94935050505056fea265627a7a723158200fb27bbd7b3da7d5090f33759e55c06d849e6d08fedb9ce7f1a0bec95a56d2e064736f6c63430005100032",
  "source": "// SPDX-License-Identifier: MIT\npragma solidity >=0.4.22 <0.9.0;\n\ncontract Calculator {\n  function getCalk(uint256 x, bytes32 oper, uint256 y) public pure returns (uint256){\n    uint256 res;\n    if (oper==\"+\") res = x+y;\n    if (oper==\"-\") res = x-y;\n    if (oper==\"*\") res = x*y;\n    if (oper==\"/\") res = x/y;\n    return res;\n  }\n}\n",
  "sourcePath": "C:\\contract\\PracticPapulov\\contracts\\Calculator.sol",
  "compiler": {
    "name": "solc",
    "version": "0.5.16+commit.9c3226ce.Emscripten.clang"
  },
  "schemaVersion": "3.4.16",
  "updatedAt": "2024-04-18T10:01:36.414Z",
  "networkType": "ethereum",
  "devdoc": {
    "methods": {}
  },
  "userdoc": {
    "methods": {}
  }
}