{
  "contractName": "Dice",
  "abi": [
    {
      "constant": true,
      "inputs": [],
      "name": "Winner",
      "outputs": [
        {
          "internalType": "string",
          "name": "",
          "type": "string"
        },
        {
          "internalType": "uint256",
          "name": "",
          "type": "uint256"
        }
      ],
      "payable": false,
      "stateMutability": "view",
      "type": "function"
    }
  ],
  "bytecode": "0x608060405234801561001057600080fd5b506101d0806100206000396000f3fe608060405234801561001057600080fd5b506004361061002b5760003560e01c8063b2b98ed214610030575b600080fd5b6100386100b7565b6040518080602001838152602001828103825284818151815260200191508051906020019080838360005b8381101561007b578181015183820152602001610063565b50505050905090810190601f1680156100a85780820380516001836020036101000a031916815260200191505b50935050505060405180910390f35b60606000806100c6600061015b565b905060006100d4600161015b565b905080821115610104575060408051808201909152600581526457696e203160d81b602082015292509050610157565b80821015610133576040805180820190915260058152642bb4b7101960d91b6020820152935091506101579050565b506040805180820190915260078152662737ba103bb4b760c91b6020820152925090505b9091565b60408051426020808301919091523360601b828401526054808301949094528251808303909401845260749091019091528151910120600a90066002019056fea265627a7a72315820adbda82b90e14e77de567a5b8cf84574f7322d38f16291f6bd01710219420c8164736f6c63430005100032",
  "source": "// SPDX-License-Identifier: MIT\npragma solidity >=0.4.22 <0.9.0;\n\ncontract Dice {\n\nfunction getRandomNumber(uint number) private view returns (uint) {\n    uint brosok = uint(keccak256(abi.encodePacked(block.timestamp, msg.sender, number))) % 10;\n    brosok = brosok + 2;\n    return(brosok);\n}\n\nfunction Winner() public view returns(string memory , uint)\n{\n    uint player1 = getRandomNumber(0);\n    uint player2 = getRandomNumber(1);\n    if (player1 > player2)\n    return(\"Win 1\",player1);\n    else if (player1 < player2)\n    return(\"Win 2\",player2);\n    else return(\"Not win\", player1);\n\n}\n\n}\n",
  "sourcePath": "C:\\contract\\PracticPapulov\\contracts\\Dice.sol",
  "compiler": {
    "name": "solc",
    "version": "0.5.16+commit.9c3226ce.Emscripten.clang"
  },
  "schemaVersion": "3.4.16",
  "updatedAt": "2024-04-18T10:01:37.291Z",
  "networkType": "ethereum",
  "devdoc": {
    "methods": {}
  },
  "userdoc": {
    "methods": {}
  }
}