{
  "contractName": "Factorial",
  "abi": [
    {
      "constant": true,
      "inputs": [
        {
          "internalType": "uint256",
          "name": "n",
          "type": "uint256"
        }
      ],
      "name": "getFactorial",
      "outputs": [
        {
          "internalType": "uint256",
          "name": "",
          "type": "uint256"
        }
      ],
      "payable": false,
      "stateMutability": "pure",
      "type": "function"
    }
  ],
  "bytecode": "0x6080604052348015600f57600080fd5b5060ac8061001e6000396000f3fe6080604052348015600f57600080fd5b506004361060285760003560e01c80638235841414602d575b600080fd5b604760048036036020811015604157600080fd5b50356059565b60408051918252519081900360200190f35b60006001805b83811160705790810290600101605f565b509291505056fea265627a7a723158208b6ce2b954679d11da55d56bfc9dfecbeaaf7d26e6ad75d323abac2ac65e97a064736f6c63430005100032",
  "source": "// SPDX-License-Identifier: MIT\npragma solidity >=0.4.22 <0.9.0;\n\ncontract Factorial {\n  function getFactorial(uint n) public pure returns (uint256){\n    uint256 f = 1 ;\n    for (uint i =1; i<=n; i++) f = f *i;\n    return f;\n  }\n}\n",
  "sourcePath": "C:\\contract\\PracticPapulov\\contracts\\Factorial.sol",
  "compiler": {
    "name": "solc",
    "version": "0.5.16+commit.9c3226ce.Emscripten.clang"
  },
  "schemaVersion": "3.4.16",
  "updatedAt": "2024-04-18T10:01:35.034Z",
  "networkType": "ethereum",
  "devdoc": {
    "methods": {}
  },
  "userdoc": {
    "methods": {}
  }
}