{
  "contractName": "Note",
  "abi": [
    {
      "constant": true,
      "inputs": [
        {
          "internalType": "string",
          "name": "",
          "type": "string"
        }
      ],
      "name": "users",
      "outputs": [
        {
          "internalType": "string",
          "name": "name",
          "type": "string"
        },
        {
          "internalType": "uint256",
          "name": "number",
          "type": "uint256"
        },
        {
          "internalType": "string",
          "name": "adress",
          "type": "string"
        }
      ],
      "payable": false,
      "stateMutability": "view",
      "type": "function"
    },
    {
      "constant": false,
      "inputs": [
        {
          "internalType": "string",
          "name": "name",
          "type": "string"
        },
        {
          "internalType": "uint256",
          "name": "number",
          "type": "uint256"
        },
        {
          "internalType": "string",
          "name": "adress",
          "type": "string"
        }
      ],
      "name": "setUser",
      "outputs": [],
      "payable": false,
      "stateMutability": "nonpayable",
      "type": "function"
    },
    {
      "constant": true,
      "inputs": [
        {
          "internalType": "string",
          "name": "name",
          "type": "string"
        }
      ],
      "name": "getUser",
      "outputs": [
        {
          "internalType": "uint256",
          "name": "number",
          "type": "uint256"
        },
        {
          "internalType": "string",
          "name": "adress",
          "type": "string"
        }
      ],
      "payable": false,
      "stateMutability": "view",
      "type": "function"
    }
  ],
  "bytecode": "0x608060405234801561001057600080fd5b50610862806100206000396000f3fe608060405234801561001057600080fd5b50600436106100415760003560e01c80631d7067711461004657806331feb67114610179578063689e1c031461029c575b600080fd5b6101776004803603606081101561005c57600080fd5b810190602081018135600160201b81111561007657600080fd5b82018360208201111561008857600080fd5b803590602001918460018302840111600160201b831117156100a957600080fd5b91908080601f01602080910402602001604051908101604052809392919081815260200183838082843760009201919091525092958435959094909350604081019250602001359050600160201b81111561010357600080fd5b82018360208201111561011557600080fd5b803590602001918460018302840111600160201b8311171561013657600080fd5b91908080601f016020809104026020016040519081016040528093929190818152602001838380828437600092019190915250929550610425945050505050565b005b61021d6004803603602081101561018f57600080fd5b810190602081018135600160201b8111156101a957600080fd5b8201836020820111156101bb57600080fd5b803590602001918460018302840111600160201b831117156101dc57600080fd5b91908080601f0160208091040260200160405190810160405280939291908181526020018383808284376000920191909152509295506104de945050505050565b6040518083815260200180602001828103825283818151815260200191508051906020019080838360005b83811015610260578181015183820152602001610248565b50505050905090810190601f16801561028d5780820380516001836020036101000a031916815260200191505b50935050505060405180910390f35b610340600480360360208110156102b257600080fd5b810190602081018135600160201b8111156102cc57600080fd5b8201836020820111156102de57600080fd5b803590602001918460018302840111600160201b831117156102ff57600080fd5b91908080601f016020809104026020016040519081016040528093929190818152602001838380828437600092019190915250929550610641945050505050565b604051808060200184815260200180602001838103835286818151815260200191508051906020019080838360005b8381101561038757818101518382015260200161036f565b50505050905090810190601f1680156103b45780820380516001836020036101000a031916815260200191505b50838103825284518152845160209182019186019080838360005b838110156103e75781810151838201526020016103cf565b50505050905090810190601f1680156104145780820380516001836020036101000a031916815260200191505b509550505050505060405180910390f35b6040518060600160405280848152602001838152602001828152506000846040518082805190602001908083835b602083106104725780518252601f199092019160209182019101610453565b51815160209384036101000a60001901801990921691161790529201948552506040519384900381019093208451805191946104b394508593500190610792565b506020828101516001830155604083015180516104d69260028501920190610792565b505050505050565b600060606000836040518082805190602001908083835b602083106105145780518252601f1990920191602091820191016104f5565b51815160209384036101000a60001901801990921691161790529201948552506040519384900381018420600101548751909460009450889350918291908401908083835b602083106105785780518252601f199092019160209182019101610559565b518151600019602094850361010090810a8201928316921993909316919091179092529490920196875260408051978890038201882060029081018054601f60018216159098029095019094160494850182900482028801820190528387529095945085935084019050828280156106315780601f1061060657610100808354040283529160200191610631565b820191906000526020600020905b81548152906001019060200180831161061457829003601f168201915b5050505050905091509150915091565b805160208183018101805160008252928201938201939093209190925280546040805160026001841615610100026000190190931692909204601f81018590048502830185019091528082529192909183918301828280156106e45780601f106106b9576101008083540402835291602001916106e4565b820191906000526020600020905b8154815290600101906020018083116106c757829003601f168201915b505050505090806001015490806002018054600181600116156101000203166002900480601f0160208091040260200160405190810160405280929190818152602001828054600181600116156101000203166002900480156107885780601f1061075d57610100808354040283529160200191610788565b820191906000526020600020905b81548152906001019060200180831161076b57829003601f168201915b5050505050905083565b828054600181600116156101000203166002900490600052602060002090601f016020900481019282601f106107d357805160ff1916838001178555610800565b82800160010185558215610800579182015b828111156108005782518255916020019190600101906107e5565b5061080c929150610810565b5090565b61082a91905b8082111561080c5760008155600101610816565b9056fea265627a7a72315820576e5a9f3d98814c64e0e8ceb9220d9711313775b13f0283db986096fff1194664736f6c63430005100032",
  "source": "// SPDX-License-Identifier: MIT\npragma solidity >=0.4.22 <0.9.0;\n\ncontract Note {\n  struct  user {\n    string name;\n    uint number;\n    string adress;\n    \n  }\n  mapping(string => user) public users;\n\n  function setUser(string memory name, uint number, string memory adress )  public {\n    users[name] = user(name,number,adress);\n    \n  }\n\n  function getUser(string memory name) public view returns (uint number,string memory adress) {\n    return(users[name].number, users[name].adress);\n  }\n}\n",
  "sourcePath": "C:\\contract\\PracticPapulov\\contracts\\Note.sol",
  "compiler": {
    "name": "solc",
    "version": "0.5.16+commit.9c3226ce.Emscripten.clang"
  },
  "schemaVersion": "3.4.16",
  "updatedAt": "2024-04-18T10:01:36.614Z",
  "networkType": "ethereum",
  "devdoc": {
    "methods": {}
  },
  "userdoc": {
    "methods": {}
  }
}