{
  "contractName": "Polit1",
  "abi": [
    {
      "constant": true,
      "inputs": [
        {
          "internalType": "uint8",
          "name": "a",
          "type": "uint8"
        },
        {
          "internalType": "uint8",
          "name": "b",
          "type": "uint8"
        },
        {
          "internalType": "bytes32",
          "name": "operation",
          "type": "bytes32"
        }
      ],
      "name": "AndOrNot",
      "outputs": [
        {
          "internalType": "uint8",
          "name": "",
          "type": "uint8"
        }
      ],
      "payable": false,
      "stateMutability": "pure",
      "type": "function"
    }
  ],
  "bytecode": "0x608060405234801561001057600080fd5b50610180806100206000396000f3fe608060405234801561001057600080fd5b506004361061002b5760003560e01c806335857a6514610030575b600080fd5b6100606004803603606081101561004657600080fd5b5060ff813581169160208101359091169060400135610076565b6040805160ff9092168252519081900360200190f35b6000816210539160ea1b141561008f5750828216610144565b816127a960f11b14156100a55750828217610144565b81621393d560ea1b14156100bb57508219610144565b81631390539160e21b14156100d4575082821619610144565b81622c27a960e91b14156100eb5750828218610144565b81622727a960e91b1415610103575082821719610144565b6040805162461bcd60e51b815260206004820152601160248201527024b73b30b634b21037b832b930ba34b7b760791b604482015290519081900360640190fd5b939250505056fea265627a7a723158209480c7a8d152ef320a83a6e095d42e707be75bf29170b9f8c7f8028807b1820664736f6c63430005100032",
  "source": "// SPDX-License-Identifier: MIT\npragma solidity >=0.4.22 <0.9.0;\n\ncontract Polit1 {\n    function AndOrNot(uint8 a, uint8 b, bytes32 operation) public pure returns (uint8) {\n        if (operation == \"AND\") {\n            return a & b; // Побитовое AND\n        } else if (operation == \"OR\") {\n            return a | b; // Побитовое OR\n        } else if (operation == \"NOT\") {\n            return uint8(~a); // Побитовое NOT\n        } else if (operation == \"NAND\") {\n            return uint8(~(a & b)); // Побитовое NAND\n        } else if (operation == \"XOR\") {\n            return a ^ b; // Побитовое XOR\n        } else if (operation == \"NOR\") {\n            return uint8(~(a | b)); // Побитовое NOR\n        }\n        revert(\"Invalid operation\");\n    }\n}\n\n",
  "sourcePath": "C:\\contract\\PracticPapulov\\contracts\\Polit1.sol",
  "compiler": {
    "name": "solc",
    "version": "0.5.16+commit.9c3226ce.Emscripten.clang"
  },
  "schemaVersion": "3.4.16",
  "updatedAt": "2024-04-18T10:01:37.080Z",
  "networkType": "ethereum",
  "devdoc": {
    "methods": {}
  },
  "userdoc": {
    "methods": {}
  }
}