{
  "contractName": "translation281016",
  "abi": [
    {
      "constant": true,
      "inputs": [
        {
          "internalType": "string",
          "name": "number",
          "type": "string"
        },
        {
          "internalType": "uint8",
          "name": "fromBase",
          "type": "uint8"
        },
        {
          "internalType": "uint8",
          "name": "toBase",
          "type": "uint8"
        }
      ],
      "name": "convertNumber",
      "outputs": [
        {
          "internalType": "string",
          "name": "",
          "type": "string"
        }
      ],
      "payable": false,
      "stateMutability": "pure",
      "type": "function"
    }
  ],
  "bytecode": "0x608060405234801561001057600080fd5b506103d9806100206000396000f3fe608060405234801561001057600080fd5b506004361061002b5760003560e01c8063b79daa9814610030575b600080fd5b6100e66004803603606081101561004657600080fd5b81019060208101813564010000000081111561006157600080fd5b82018360208201111561007357600080fd5b8035906020019184600183028401116401000000008311171561009557600080fd5b91908080601f0160208091040260200160405190810160405280939291908181526020018383808284376000920191909152509295505060ff833581169450602090930135909216915061015b9050565b6040805160208082528351818301528351919283929083019185019080838360005b83811015610120578181015183820152602001610108565b50505050905090810190601f16801561014d5780820380516001836020036101000a031916815260200191505b509250505060405180910390f35b606060028360ff1610158015610175575060108360ff1611155b61017e57600080fd5b60028260ff1610158015610196575060108260ff1611155b61019f57600080fd5b60006101ab85856101c0565b90506101b7818461024f565b95945050505050565b8151600090839082906001905b80156102425760008460018303815181106101e457fe5b016020015160f81c905060308110801590610200575060398111155b1561020e57602f190161022a565b60418110158015610220575060468111155b1561022a57603619015b8202929092019160ff861690910290600019016101cd565b5090925050505b92915050565b60608261027457506040805180820190915260018152600360fc1b6020820152610249565b60408051818152606081810183529160208201818038833901905050905060005b84156102f25760008460ff1686816102a957fe5b0690506102b58161037e565b83516001840193859181106102c657fe5b60200101906001600160f81b031916908160001a9053508460ff1686816102e957fe5b04955050610295565b6060816040519080825280601f01601f19166020018201604052801561031f576020820181803883390190505b50905060005b8281101561037457838160018503038151811061033e57fe5b602001015160f81c60f81b82828151811061035557fe5b60200101906001600160f81b031916908160001a905350600101610325565b5095945050505050565b6000600a82101561039657506030810160f81b61039f565b506037810160f81b5b91905056fea265627a7a72315820057aaee238aa9dd6e4d9bd1d20d28f0fb2950ef93231bfe52d17eb8b1beea9e264736f6c63430005100032",
  "source": "// SPDX-License-Identifier: MIT\npragma solidity >=0.4.22 <0.9.0;\n\ncontract translation281016 {\n  function convertNumber(string memory number, uint8 fromBase, uint8 toBase) public pure returns(string memory) {\n      require(fromBase >=2 && fromBase<=16);\n      require(toBase >=2 && toBase<=16);\n\n      uint256 decimalNumber = fromBaseConversionToDecimal(number, fromBase);\n      return toBaseConversionToDecimal(decimalNumber, toBase);\n    }\n\n    function fromBaseConversionToDecimal(string memory number, uint8 fromBase) internal pure returns (uint256) {\n        bytes memory digits = bytes(number);\n        uint256 decimalNumber = 0;\n        uint256 base = 1;\n\n        for (uint256 i = digits.length; i>0; i--){\n            uint256 digit = uint8(digits[i-1]);\n            if(digit >= 48 && digit <= 57) {\n                digit -= 48;\n            } else if(digit >= 65 && digit <= 70) {\n                digit -= 55;\n\n            }\n            decimalNumber += digit * base;\n            base *= fromBase; \n        }\n        return decimalNumber;\n    }\n    \n    function toBaseConversionToDecimal(uint256 decimalNumber, uint8 toBase) internal pure returns (string memory) {\n        if (decimalNumber == 0) {\n            return \"0\";\n        }\n\n       bytes memory result = new bytes(64);\n       uint256 index = 0;\n       while (decimalNumber > 0) {\n           uint256 digit = decimalNumber % toBase;\n           result[index++] = toHexChar(digit);\n           decimalNumber /= toBase;\n       }\n       bytes memory baseconvert = new bytes(index);\n       for (uint256 i = 0; i< index; i++){\n           baseconvert[i] = result[index - 1 - i];\n       }\n       return string(baseconvert);\n\n\n    }\n\n   function toHexChar(uint256 digit) internal pure returns (bytes1) {\n       if (digit < 10) {\n           return bytes1 (uint8(digit) + 48);\n       } else {\n            return bytes1 (uint8(digit - 10 + 65));\n       }\n   }\n\n}\n",
  "sourcePath": "C:\\contract\\PracticPapulov\\contracts\\translation281016.sol",
  "compiler": {
    "name": "solc",
    "version": "0.5.16+commit.9c3226ce.Emscripten.clang"
  },
  "schemaVersion": "3.4.16",
  "updatedAt": "2024-04-18T10:01:36.032Z",
  "networkType": "ethereum",
  "devdoc": {
    "methods": {}
  },
  "userdoc": {
    "methods": {}
  }
}