{
  "contractName": "translation10116",
  "abi": [
    {
      "constant": true,
      "inputs": [
        {
          "internalType": "uint16",
          "name": "decimalNumber",
          "type": "uint16"
        }
      ],
      "name": "BinaryToDecimalSix",
      "outputs": [
        {
          "internalType": "string",
          "name": "",
          "type": "string"
        }
      ],
      "payable": false,
      "stateMutability": "pure",
      "type": "function"
    }
  ],
  "bytecode": "0x608060405234801561001057600080fd5b506101ce806100206000396000f3fe608060405234801561001057600080fd5b506004361061002b5760003560e01c806395a5315614610030575b600080fd5b6100516004803603602081101561004657600080fd5b503561ffff166100c6565b6040805160208082528351818301528351919283929083019185019080838360005b8381101561008b578181015183820152602001610073565b50505050905090810190601f1680156100b85780820380516001836020036101000a031916815260200191505b509250505060405180910390f35b606061ffff8261ffff1611156100db57600080fd5b60606100e6836100ef565b9150505b919050565b604080516004808252818301909252606091829190602082018180388339019050509050600f60005b600481101561016b5784821661ffff1661013181610174565b84836003038151811061014057fe5b60200101906001600160f81b031916908160001a9053505060049490941c610fff1693600101610118565b50909392505050565b6000600a82101561018c57506030810160f81b6100ea565b506037810160f81b6100ea56fea265627a7a723158207b53bc7e060a0f3520c521f13c2151c4b3024d7bbdab6c0f94080b631d05215564736f6c63430005100032",
  "source": "// SPDX-License-Identifier: MIT\npragma solidity >=0.4.22 <0.9.0;\n\ncontract translation10116 {\n  function BinaryToDecimalSix(uint16 decimalNumber) public pure returns(string memory) {\n require(decimalNumber >= 0 && decimalNumber <= 65535);\n string memory hexString = toHexString(decimalNumber);\n return hexString;\n}\n\n\nfunction toHexString(uint16 decimalNumber) internal pure returns (string memory) {\n bytes memory buffer = new bytes(4);\n uint256 mask = 15;\n\n for (uint256 i = 0; i < 4; i++) {\n uint256 digit = decimalNumber & mask;\n buffer[3 - i] = toHexChar(digit);\n decimalNumber >>= 4;\n }\nreturn string(buffer);\n}\n\nfunction toHexChar(uint256 digit) internal pure returns (bytes1) {\n if (digit < 10) {\n return bytes1(uint8(digit) + 48);\n } else {\n return bytes1(uint8(digit - 10 + 65));\n }\n}\n}",
  "sourcePath": "C:\\contract\\PracticPapulov\\contracts\\translation10116.sol",
  "compiler": {
    "name": "solc",
    "version": "0.5.16+commit.9c3226ce.Emscripten.clang"
  },
  "schemaVersion": "3.4.16",
  "updatedAt": "2024-04-18T10:01:35.827Z",
  "networkType": "ethereum",
  "devdoc": {
    "methods": {}
  },
  "userdoc": {
    "methods": {}
  }
}