{
  "contractName": "translation8110",
  "abi": [
    {
      "constant": true,
      "inputs": [
        {
          "internalType": "uint256",
          "name": "octalnumber",
          "type": "uint256"
        }
      ],
      "name": "octal",
      "outputs": [
        {
          "internalType": "uint256",
          "name": "",
          "type": "uint256"
        }
      ],
      "payable": false,
      "stateMutability": "pure",
      "type": "function"
    }
  ],
  "bytecode": "0x608060405234801561001057600080fd5b5060bb8061001f6000396000f3fe6080604052348015600f57600080fd5b506004361060285760003560e01c8063adb832d014602d575b600080fd5b604760048036036020811015604157600080fd5b50356059565b60408051918252519081900360200190f35b6000806001835b8015607d57600a8082068302939093019260089092029190046060565b5090939250505056fea265627a7a723158201929771829bcd46c4981f9dabb8e512dbe493bb7c3f0db12bdd1f762e5afa80764736f6c63430005100032",
  "source": "// SPDX-License-Identifier: MIT\npragma solidity >=0.4.22 <0.9.0;\n\ncontract translation8110 {\n  function octal(uint octalnumber) public pure returns(uint){\n      uint decimalnumber =0;\n      uint base = 1 ;\n      uint temp = octalnumber;\n\n      while(temp > 0)\n      {\n        uint lastdigit = temp %10;\n        temp = temp /10;\n        decimalnumber+=lastdigit * base;\n        base = base * 8;\n      }\n      return decimalnumber;\n  } \n}\n",
  "sourcePath": "C:\\contract\\PracticPapulov\\contracts\\translation8110.sol",
  "compiler": {
    "name": "solc",
    "version": "0.5.16+commit.9c3226ce.Emscripten.clang"
  },
  "schemaVersion": "3.4.16",
  "updatedAt": "2024-04-18T10:01:35.453Z",
  "networkType": "ethereum",
  "devdoc": {
    "methods": {}
  },
  "userdoc": {
    "methods": {}
  }
}