{
  "contractName": "translation2110",
  "abi": [
    {
      "constant": true,
      "inputs": [
        {
          "internalType": "uint256",
          "name": "BinaryNumber",
          "type": "uint256"
        }
      ],
      "name": "BinaryToDecimal",
      "outputs": [
        {
          "internalType": "uint256",
          "name": "",
          "type": "uint256"
        }
      ],
      "payable": false,
      "stateMutability": "pure",
      "type": "function"
    }
  ],
  "bytecode": "0x608060405234801561001057600080fd5b5060bb8061001f6000396000f3fe6080604052348015600f57600080fd5b506004361060285760003560e01c8063cc145a1c14602d575b600080fd5b604760048036036020811015604157600080fd5b50356059565b60408051918252519081900360200190f35b6000806001835b8015607d57600a8082068302939093019260029092029190046060565b5090939250505056fea265627a7a7231582089cd36d156cbacc5e6b22747d87d86d0aa3c8b6e512100059bb42ccd69f82a8864736f6c63430005100032",
  "source": "// SPDX-License-Identifier: MIT\npragma solidity >=0.4.22 <0.9.0;\n\ncontract translation2110 {\n  function BinaryToDecimal(uint BinaryNumber) public pure returns(uint){\n    uint decimalNumber = 0;\n    uint base =1;\n    uint temp = BinaryNumber;\n\n    while (temp>0)\n    {\n      uint lastDigit = temp % 10;\n      temp = temp /10;\n      decimalNumber += lastDigit * base;\n      base = base * 2;\n    }\n    return decimalNumber;\n  }\n}\n",
  "sourcePath": "C:\\contract\\PracticPapulov\\contracts\\translation2110.sol",
  "compiler": {
    "name": "solc",
    "version": "0.5.16+commit.9c3226ce.Emscripten.clang"
  },
  "schemaVersion": "3.4.16",
  "updatedAt": "2024-04-18T10:01:35.257Z",
  "networkType": "ethereum",
  "devdoc": {
    "methods": {}
  },
  "userdoc": {
    "methods": {}
  }
}