{
  "contractName": "translation1012",
  "abi": [
    {
      "constant": true,
      "inputs": [
        {
          "internalType": "uint256",
          "name": "BinaryNumberTwo",
          "type": "uint256"
        }
      ],
      "name": "BinaryToDecimalTwo",
      "outputs": [
        {
          "internalType": "uint256",
          "name": "",
          "type": "uint256"
        }
      ],
      "payable": false,
      "stateMutability": "pure",
      "type": "function"
    }
  ],
  "bytecode": "0x608060405234801561001057600080fd5b5060bc8061001f6000396000f3fe6080604052348015600f57600080fd5b506004361060285760003560e01c806306ed691b14602d575b600080fd5b604760048036036020811015604157600080fd5b50356059565b60408051918252519081900360200190f35b6000806001835b8015607e576001811682029290920191600a90910290600290046060565b5090939250505056fea265627a7a72315820b31afc804d1d9af0c1ad40a285a87bdbffb1ca99b43b8dd64220e4431232c6fe64736f6c63430005100032",
  "source": "// SPDX-License-Identifier: MIT\npragma solidity >=0.4.22 <0.9.0;\n\ncontract translation1012 {\n  function BinaryToDecimalTwo(uint BinaryNumberTwo) public pure returns(uint){\n    uint decimalNumber = 0;\n    uint base =1;\n    uint temp = BinaryNumberTwo;\n\n    while (temp>0)\n    {\n      uint lastDigit = temp % 2;\n      temp = temp /2;\n      decimalNumber += lastDigit * base;\n      base = base * 10;\n    }\n    return decimalNumber;\n    \n\n  }\n}\n",
  "sourcePath": "C:\\contract\\PracticPapulov\\contracts\\translation1012.sol",
  "compiler": {
    "name": "solc",
    "version": "0.5.16+commit.9c3226ce.Emscripten.clang"
  },
  "schemaVersion": "3.4.16",
  "updatedAt": "2024-04-18T10:01:35.642Z",
  "networkType": "ethereum",
  "devdoc": {
    "methods": {}
  },
  "userdoc": {
    "methods": {}
  }
}